:060000000A128A1100291A
:10000800F000030EF100031383120B192F200C18B4
:1000180014208C182520710E8300F00E700E090034
:10002800031383120B308F00DC308E000C10F20AA1
:100038007208023C031921280800F201850AF40A13
:1000480008008C10F30A73080A3C03192C280800CE
:10005800F301860A080003138312FC3081000B1198
:10006800890121183B282308870009143F28220802
:0C007800870089143F280130A106080011
:100200001E2132213F2146215521652103138312EE
:100210000B211721082974080A3C03191021080032
:10022000F401F50A7508063C0319F5010800740885
:100230000022A20075080022A300080003178316FD
:1002400088018901031383168501870106100910AF
:100250008910031383128501860187018901F20148
:10026000F3010800031383160C148C140313831278
:100270008B170B178B160B110C108C100800031327
:1002800083160F140F178F160F120800031383160F
:1002900081128111011581140114031383120313B8
:1002A0008312FC3081000B1108000313831210131A
:1002B00090161016901190101014031383120B3027
:1002C0008F00DC308E000C1008000313831212170D
:1002D0009216121692159214121412150313831605
:0E02E000C33092009101031383128C100800AA
:100400008A018A140F3982073F3406345B344F3433
:1004100066346D347D3407347F346F3477347C3404
:0804200039345E347934713483
:04400E00D420FF3F7C
:00000001FF
